:1000000015EF09F0F76A140FF66E000EF7220900DB
:10001000F550120000000303060104060205000368
:1000200005004B484F41204449454E20545500009F
:10003000444F20414E204353204E484F4D203130F5
:10004000200036B002D08C9001D08C80959036B2D2
:1000500002D08B9401D08B84949436B402D08B92CE
:1000600001D08B82949236B602D08B9001D08B80D7
:1000700094901200EA6A360EE96EEF500EE0030E1D
:10008000016E006A002EFED7012EFBD7E30E006E34
:10009000002EFED70000EF2EF2D7120095928C8230
:1000A000020E006E002EFED700D095928C92030EA9
:1000B000366EE0DF1200353A35C036F0C2DFEEDFD3
:1000C000353A35C036F0BDDFE9DF1200366AB9DFF8
:1000D000C80E366ECFDF95948C94030E366EB1DF6A
:1000E000DDDFDCDFDBDF020E366EABDFD7DF2C0EB1
:1000F000356EE1DF0C0E356EDEDF060E356EDBDFB2
:10010000010E356ED8DF26EF09F0080E016E020EE3
:10011000006E002EFED78B9E949E020E006E002E67
:10012000FED729368B9CD8B0948CD8A0949C948E02
:1001300082AEFED7012EEBD7020E006E002EFED748
:100140008B9E949E0000948C020E006E002EFED7B3
:10015000020E006E002EFED7948E82AEFED7016A8C
:10016000020E006E002EFED782BC01808B9E949EF4
:100170008B9C949C1200080E2B6E00C02CF0948C6B
:10018000020E006E002EFED7948E82AEFED782BC89
:10019000D88082ACD8900136020E006E002EFED7B9
:1001A000949E8B9E2B2EEBD7948C020E006E002E0D
:1001B000FED78B9C2C50D8A4949C0000948E82AEC9
:1001C000FED7020E006E002EFED78B9E949E020E6E
:1001D000006E002EFED78B9C949C1200948C020E15
:1001E000006E002EFED7948E020E006E002EFED7FB
:1001F0008B9C949C020E006E002EFED78B9E949ECC
:10020000D00E296E82DF296A80DF948C020E006E88
:10021000002EFED7948E020E006E002EFED782AE08
:10022000FED78B9C949C020E006E002EFED78B9EF8
:10023000949ED10E296E69DF006A9DDF01C023F014
:10024000949C0000948E82AEFED7020E006E002EAB
:10025000FED700D00000948C020E006E002EFED758
:100260002350800B2AE0239E948C020E006E002EF9
:10027000FED7948E020E006E002EFED78B9C949CAF
:10028000020E006E002EFED78B9E949E296A3DDFE3
:10029000296A3BDF23C029F038DF949C0000948E4C
:1002A00082AEFED7020E006E002EFED700D00000F8
:1002B000948C020E006E002EFED728EF09F0959464
:1002C0008C8434C035F0F7DE95948C9412000900CC
:1002D000F5520CE0F6CF23F0F7CF24F0F5CF34F051
:1002E000EEDF23C0F6FF24C0F7FFF1D71200948C95
:1002F000020E006E002EFED7948E020E006E002EAF
:10030000FED78B9C949C020E006E002EFED78B9E17
:10031000949ED00E296EF9DE296AF7DE948C020EC7
:10032000006E002EFED7948E020E006E002EFED7B9
:1003300082AEFED78B9C949C020E006E002EFED7E0
:100340008B9E949ED10E296EE0DE27C003F026C05E
:10035000E9FF27C0EAFF010E006E0DDF01C0EFFFCD
:10036000010E2624016E000E2720036E01C0E9FF56
:10037000EA6E010E006EFFDE01C0EFFF020E2624C2
:10038000016E000E2720036E01C0E9FFEA6E010E28
:10039000006EF1DE01C0EFFF030E2624016E000E99
:1003A0002720036E01C0E9FFEA6E010E006EE3DE56
:1003B00001C0EFFF040E2624016E000E2720036EFD
:1003C00001C0E9FFEA6E010E006ED5DE01C0EFFF4D
:1003D000050E2624016E000E2720036E01C0E9FFE2
:1003E000EA6E010E006EC7DE01C0EFFF060E262486
:1003F000016E000E2720036E01C0E9FFEA6E006A5D
:10040000BADE01C0EFFF949C0000948E82AEFED74E
:10041000020E006E002EFED700D00000948C020E5B
:10042000006E002EFED712001638096E0F0E091648
:1004300016500F0B0A6E17380B6E0F0E0B16175057
:100440000F0B0C6E18380D6E0F0E0D1618500F0B8B
:100450000E6E19C00FF01A38106E0F0E10161A50CB
:100460000F0B116E1B38126E0F0E12161B500F0B56
:10047000136E1C38146E0F0E14161C500F0B156ED5
:1004800012002950016A285C03E228C000F00CD059
:10049000006A080E2A6E283600362950005CD8B053
:1004A000006E01362A2EF7D7120014500A0DF350B1
:1004B0001524050F276E14500A0DF3501524FC0B5C
:1004C000266E263226323F0E261626502726145038
:1004D0000A0DF3CF28F01550030B282408E1125021
:1004E0000A0DF3501324020801E2272A27061250AE
:1004F0000A0DF3501324036A85DD272610500A0DD8
:10050000F35011242724266E26C028F0070E296EEA
:10051000B8DF00C026F0020E26240F6E1200345001
:10052000D8B471D0006E3850D8B46DD0002604E332
:10053000810E002668E204D07F0E005E64E363E073
:1005400035C03CF039503C1A358E398E37503B025D
:10055000F4CF3EF036503A02F4CF03F0F3CF3DF043
:100560003B02F3503E26F4503D22000E032237504A
:100570003A02F3503E26F4503D22000E026A032256
:10058000022235503B02F3503D26F4500322000E68
:10059000022235503A02F3500326F4500222000E94
:1005A000016A012237503902F3503D26F4500322EC
:1005B000000E0222012236503902F3500326F45075
:1005C0000222000E012235503902F3500226F45067
:1005D0000122002A01BE05D03D360336023601361F
:1005E0000006000E3DAE0AD0032A0222012201506D
:1005F00005E1025003E1035001E1002A3CBE018EF7
:100600003CAE019E04D0006A016A026A036A1200CD
:100610003450B608346E036A35C038F0358ED89041
:100620003532363237320332023201320032342E62
:10063000F6D738AE0BD0001E011E021E031E002A84
:10064000D8B4012AD8B4022AD8B4032A96EF03F00A
:10065000D8B203D0EA6A3C0EE96E006A016A026A07
:10066000036A3C6A3D6A3E6A3F6A3B503A10391061
:1006700038102CE0200E406ED890343635363636A1
:1006800037363C363D363E363F363B503F5C08E120
:100690003A503E5C05E139503D5C02E138503C5C2B
:1006A0000FE338503C5E3950D8A0393C3D5E3A509B
:1006B000D8A03A3C3E5E3B50D8A03B3C3F5ED88041
:1006C0000036013602360336402ED6D73CC0EFFF47
:1006D0003DC0ECFF3EC0ECFF3FC0ECFF1200E95014
:1006E0002C6E2B502E6E19E02AC037F029C036F040
:1006F00028C035F027C034F03B6A3A6A200E396EC4
:10070000820E386E0CDF03C02AF002C029F001C04F
:1007100028F000C027F02E2EE7D72AC037F029C0D6
:1007200036F028C035F027C034F072D703C02AF065
:1007300002C029F001C028F000C027F02AAE0DD079
:100740002C062C8A271E281E291E2A1E272AD8B4CA
:10075000282AD8B4292AD8B42A2A3B0E336E9A0EF6
:10076000326ECA0E316E306A0A0E2E6E2B50D8B41D
:100770002C2AD882EA6A270EE96E2AC037F029C0EF
:1007800036F028C035F027C034F033C03BF032C01B
:100790003AF031C039F030C038F05ADF0150005221
:1007A0000FE12B282E5C0CE02C500CE00F0B2E5C84
:1007B00001E037E22CBE35D02CBC04D0200E2DD069
:1007C000200E2C162CAA0CD02C9A2B50D8A42C0618
:1007D00000502C6E2D0E346E72DD2C50006E2C6A83
:1007E0002B502E5C0AE100502C6E2E0E346E67DD0D
:1007F0002C50006E200E2C16000E300E2CAA0DD0A0
:100800002C9A2B50D8A42C0600502C6E2D0E346E32
:1008100056DD2C50006E2C6A300E002600C034F0DD
:100820004EDDD89233C037F032C036F031C035F0EB
:1008300030C034F03B6A3A6A396A0A0E386E08DF13
:1008400003C033F002C032F001C031F000C030F01C
:100850002E2E8FD7F9EF04F0800E356E2CDC200E93
:10086000346E2DDD262C07D05F0E346E28DD5F0E32
:10087000346E25DD0AD0300E0D24276E346E1FDD58
:10088000300E0E24276E346E1ADD3A0E346E17DDEC
:100890002650020807E15F0E346E11DD5F0E346EE4
:1008A0000EDD0AD0300E0B24276E346E08DD300EBC
:1008B0000C24276E346E03DD3A0E346E00DD2650B4
:1008C000030807E15F0E346EFADC5F0E346EF7DC6E
:1008D0000AD0300E0924276E346EF1DC300E0A2463
:1008E000276E346EECDC200E346EE9DC200E346EA4
:1008F000E6DC0F50080812E0540E346EE0DC480EBF
:10090000346EDDDC550E346EDADC200E346ED7DC4E
:10091000300E0F24276E346ED2DC0FD0430E346EAF
:10092000CEDC480E346ECBDC550E346EC8DC200EA7
:10093000346EC5DC4E0E346EC2DCC00E356E5BEC20
:1009400000F02650040807E15F0E346EB8DC5F0E3D
:10095000346EB5DC0AD0300E1024276E346EAFDC56
:10096000300E1124276E346EAADC2F0E346EA7DCF5
:100970002650050807E15F0E346EA1DC5F0E346E71
:100980009EDC0AD0300E1224276E346E98DC300EB6
:100990001324276E346E93DC2F0E346E90DC320EEF
:1009A000346E8DDC300E346E8ADC2650060807E18A
:1009B0005F0E346E84DC5F0E346E81DC0AD0300E44
:1009C0001424276E346E7BDC300E1524276E346EB3
:1009D00076DC200E346E73DC420EE96E20C02AF005
:1009E0001FC029F01EC028F01DC027F0010E2B6E7D
:1009F00076D6DF0E346E63DC1200050E2D5E08E342
:100A0000EA6A2D0EE96EEF5003E000D0EF2EFED71C
:100A100011EF05F095968C96020E2C6EF90E2D6E48
:100A2000ECD72C2EFBD79586F90E006E002EFED744
:100A300000D012002D6A2D50070811E395968C9670
:100A4000D8902C3202E28C9601D08C8695963B0E83
:100A5000006E002EFED700D095862D2AECD712000E
:100A60002C6A2C50070811E395968C9695869586EE
:100A700083B602D0D89001D0D8802D323B0E006EC4
:100A8000002EFED700D02C2AECD72DC001F012008A
:100A90008E0E006E2DC001F02CC002F0036A0152D0
:100AA00009E102C001F0026A080E005E015202E193
:100AB000006A08D0D89001BE04D002360136000684
:100AC000F9D7019E12002C50D8B4A5D0386E305002
:100AD000D8B4A1D0385E05E37F0E3826D8B09BD0BD
:100AE00006D0810E385ED8A096D0D8B494D038C045
:100AF00000F0016A026A036A376A2DC036F0368E4A
:100B00002EC035F02FC034F0190E386E3350345EDD
:100B10000DE2010E355E0AE2365E08E2375E06E25D
:100B2000372A362A352A3350342628D03250355EBB
:100B300012E2010E365E0FE2375E0DE2372A362AE8
:100B4000325035263350342619E3352A17E1362A38
:100B500015E1372A13D031508009365E0EE2010EBE
:100B6000375E0BE2372A315080093626325035265F
:100B7000E9E3362AE7E1372AE5D70380382E01D0AA
:100B80000BD0D8903436353636363736D8900336D3
:100B9000023601363936BAD739A006D0D89001329C
:100BA00002320332393202D0000635E039BE1ED09F
:100BB000D89034363536363637363350345E07E221
:100BC000010E355E04E2365E02E2375E1AE3325011
:100BD000355E05E2010E365E02E2375E12E3315009
:100BE0008009365E03E2010E375E0BE3032A09E15A
:100BF000022A07E1012A05E1002A0DE00132023252
:100C000003322DC038F03150381A38AE02D0018E80
:100C100006D0019E04D0006A016A026A036A1200CB
:100C20008E0E006E2C50005E2DC002F02EC001F022
:100C3000028E005209E0D890025202E1015204E013
:100C400002320132002EF7D72DAE05D0011E021E52
:100C5000012AD8B4022A95EF06F0236A055202E170
:100C6000065204E00550D8B406060506055266E1B2
:100C7000065264E104520DE1CDDECC0E2C6EDADEBC
:100C8000440E2C6ED7DE010E046E066A080E056E49
:100C900055D0C0DECC0E2C6ECDDEBE0E2C6ECADE64
:100CA000DFDE01C024F0DCDE01C025F025C027F026
:100CB00024C026F027C02DF026C02CF0E9DE03C0AA
:100CC0002FF002C02EF001C02DF000C02CF0336ACE
:100CD000326A316A830E306EF6DE03C02BF002C03A
:100CE0002AF001C029F000C028F02BC037F02AC03C
:100CF00036F029C035F028C034F03B6A3A6A200E3D
:100D0000396E820E386E0BDC03C02BF002C02AF065
:100D100001C029F000C028F02BC02FF02AC02EF00F
:100D200029C02DF028C02CF07BD702C008F001C0EC
:100D300007F0010E236E046A066A056E23C001F0F7
:100D400059EF09F0948C020E006E002EFED7948E9F
:100D5000020E006E002EFED78B9C949C020E006E3D
:100D6000002EFED78B9E949ED00E296E85EC00F04F
:100D7000296A85EC00F027C003F026C0E9FF27C0F0
:100D8000EAFFEFCF29F085EC00F0010E2624016E7A
:100D9000000E2720036E01C0E9FFEA6EEFCF29F0B5
:100DA00085EC00F0020E2624016E000E2720036E53
:100DB00001C0E9FFEA6EEFCF29F085EC00F0030EE9
:100DC0002624016E000E2720036E01C0E9FFEA6EA3
:100DD000EFCF29F085EC00F0040E2624016E000E02
:100DE0002720036E01C0E9FFEA6EEFCF29F085EC02
:100DF00000F0050E2624016E000E2720036E01C0B0
:100E0000E9FFEA6EEFCF29F085EC00F0060E26240C
:100E1000016E000E2720036E01C0E9FFEA6EEFCFDE
:100E200029F085EC00F0949C0000948E82AEFED7F1
:100E3000020E006E002EFED700D00000948C020E31
:100E4000006E002EFED7EDEF08F0010E236E246A2F
:100E5000276A160E266E77EC01F014EC02F055ECC2
:100E600002F02450040803E3266AF6DC03D023C012
:100E700026F0F2DC242A2450090801E2246A938235
:100E800081B2B5D0938281A2FDD7246A010E235C82
:100E9000FA0FD8B0ACD0060FEFEF08F00D500A0DE6
:100EA000F3500E24256E2550160802E3252A01D0A2
:100EB000256A25C028F00A0E296E41EC02F001C017
:100EC0000DF025C028F00A0E296E41EC02F000C09A
:100ED0000EF08DD00B500A0DF3500C24256E2550CA
:100EE0003A0802E3252A01D0256A25C028F00A0E17
:100EF000296E41EC02F001C00BF025C028F00A0E6B
:100F0000296E41EC02F000C00CF071D009500A0DBE
:100F1000F3500A24256E25503A0802E3252A01D011
:100F2000256A25C028F00A0E296E41EC02F001C0A6
:100F300009F025C028F00A0E296E41EC02F000C02D
:100F40000AF055D010500A0DF3501124256E25508B
:100F50001E0802E3252A02D0010E256E25C028F0C6
:100F60000A0E296E41EC02F001C010F025C028F0F5
:100F70000A0E296E41EC02F000C011F038D0125078
:100F80000A0DF3501324256E25500B0802E3252A81
:100F900002D0010E256E25C028F00A0E296E41EC04
:100FA00002F001C012F025C028F00A0E296E41ECB3
:100FB00002F000C013F01BD014500A0DF35015249A
:100FC000256E2550620802E3252A01D0256A25C036
:100FD00028F00A0E296E41EC02F001C014F025C081
:100FE00028F00A0E296E41EC02F000C015F093843F
:100FF00081B4B5D0938481A4FDD7246A010E235C0B
:10100000FA0FD8B0ACD0060F02EF09F00D500A0D60
:10101000F3500E24256E255202E0250602D0170E4D
:10102000256E25C028F00A0E296E41EC02F001C0A1
:101030000DF025C028F00A0E296E41EC02F000C028
:101040000EF08DD00B500A0DF3500C24256E255256
:1010500002E0250602D03B0E256E25C028F00A0EC0
:10106000296E41EC02F001C00BF025C028F00A0EF9
:10107000296E41EC02F000C00CF071D009500A0D4D
:10108000F3500A24256E255202E0250602D03B0EBD
:10109000256E25C028F00A0E296E41EC02F001C031
:1010A00009F025C028F00A0E296E41EC02F000C0BC
:1010B0000AF055D010500A0DF3501124256E25501A
:1010C000010802E2250602D01F0E256E25C028F079
:1010D0000A0E296E41EC02F001C010F025C028F084
:1010E0000A0E296E41EC02F000C011F038D0125007
:1010F0000A0DF3501324256E2550010802E225063F
:1011000002D00C0E256E25C028F00A0E296E41EC87
:1011100002F001C012F025C028F00A0E296E41EC41
:1011200002F000C013F01BD014500A0DF350152428
:10113000256E255202E0250602D0630E256E25C0DD
:1011400028F00A0E296E41EC02F001C014F025C00F
:1011500028F00A0E296E41EC02F000C015F09380D1
:1011600081B00AD0938081A0FDD7050E246E232A7A
:101170002350060801E201D072D60938006EF00E45
:10118000001600500A10166E0B38006EF00E001696
:1011900000500C10176E0D38006EF00E0016005047
:1011A0000E10186E0FC019F01038006EF00E0016F9
:1011B000005011101A6E1238006EF00E001600501A
:1011C00013101B6E1438006EF00E00160050151030
:1011D0001C6E276A160E266EB5D594EF09F0E8242A
:1011E000F76AF736F90FF66E110EF7220A00F5507E
:1011F000FA6E0800F550F96E9C0ED40E0C0F440FD9
:101200007E0FB80FE824F76AF7361F0FF66E120E3E
:10121000F7220A00F550FA6E0800F550F96E0C102E
:1012200044107C10B410EE102811F86AD09E046AA5
:10123000066A056A226A216AC150C00B0F09C16E95
:10124000070EB46E9290898066EF00F0EEEF00F02A
:10125000800E356E5BEC00F0220EF66E000EF76E1F
:1012600067EC01F0C00E356E5BEC00F0300EF66EF0
:10127000000EF76E67EC01F00C0E236EFA0E366E60
:101280003AEC00F0232EFAD7276A160E266E77EC7A
:1012900001F014EC02F055EC02F0266A2CEC04F09C
:1012A0000C0E236EFA0E366E3AEC00F0232EFAD7AF
:1012B000D4D4012C26D008C02DF007C02CF048EC67
:1012C00005F003C020F002C01FF001C01EF000C0F6
:1012D0001DF020C02FF01FC02EF01EC02DF01DC02D
:1012E0002CF0336A326A200E316E820E306E63EC5F
:1012F00005F003C020F002C01FF001C01EF000C0C6
:101300001DF0276A160E266E77EC01F014EC02F041
:1013100055EC02F0266A2CEC04F0938081B004D0E6
:0C132000938081A0FDD791D5C3D70300B6
:020000040030CA
:0E000000004C3E1E0087A1000FC00FE00F4015
:00000001FF
;PIC18F4550
;CRC=C22E  CREATED="07-Dec-23 12:04"
